{
  "txid": "e93e4d9e0ceb7d43c9d0932114391021c53fc1f25a8ee1101084818d81186cc5",
  "version": 2,
  "vin": [
    {
      "txid": "7b5d6a249662e1bd5e081903c55209b389ecbf8c3314ff2b58170e05fc2246b0",
      "vout": 2,
      "sequence": 4294967295,
      "n": 0,
      "addresses": [
        "1Kr6QSydW9bFQG1mXiPNNu6WpJGmUa9i1g"
      ],
      "isAddress": true,
      "value": "18850407812",
      "hex": "47304402204a3ab2121de4877df0f7fb9ee6037ebc20162b3c5fe8717642d79e5a252e643402201db49445b5c4ad7bd1550353d4faf1e93b5963e7b8cd0632774863f487de83c9012103786af4b32017ec640dba2d2a7e1fd5aa4a231a658e4cbc114d51c031576e19bc"
    },
    {
      "txid": "a325d975fb81842143e2376e755892914bc899e8028deec39127cf710ea7e40d",
      "vout": 14,
      "sequence": 4294967295,
      "n": 1,
      "addresses": [
        "345j2JWoSaDTwDAB14quFHjovgmkY8mFRh"
      ],
      "isAddress": true,
      "value": "12499999552",
      "hex": "160014cd80e6f59b912a121ff298b7b240a3982b2bebab"
    },
    {
      "txid": "fde9401cd18aaa938775d5d8a20b2b56cebff9fd2c44e0b88ceb1ade01a7a3ae",
      "vout": 1,
      "sequence": 4294967295,
      "n": 2,
      "addresses": [
        "345j2JWoSaDTwDAB14quFHjovgmkY8mFRh"
      ],
      "isAddress": true,
      "value": "5870000000",
      "hex": "160014cd80e6f59b912a121ff298b7b240a3982b2bebab"
    }
  ],
  "vout": [
    {
      "value": "478960000",
      "n": 0,
      "spent": true,
      "hex": "76a91413d0f54fda72a67535a4090da478e43f5b8dcaa488ac",
      "addresses": [
        "12onAKURhuqyqEdZDWRyc1LiTbrsbgxCce"
      ],
      "isAddress": true
    },
    {
      "value": "36741366348",
      "n": 1,
      "spent": true,
      "hex": "76a914cebb2851a9c7cfe2582c12ecaf7f3ff4383d1dc088ac",
      "addresses": [
        "1Kr6QSydW9bFQG1mXiPNNu6WpJGmUa9i1g"
      ],
      "isAddress": true
    }
  ],
  "blockHash": "00000000000000000007da4e0ebef6c5632a33fde0ffbc0a3d5f290d3e68d375",
  "blockHeight": 735050,
  "confirmations": 1057,
  "blockTime": 1651770872,
  "value": "37220326348",
  "valueIn": "37220407364",
  "fees": "81016",
  "hex": "02000000000103b04622fc050e17582bff14338cbfec89b30952c50319085ebde16296246a5d7b020000006a47304402204a3ab2121de4877df0f7fb9ee6037ebc20162b3c5fe8717642d79e5a252e643402201db49445b5c4ad7bd1550353d4faf1e93b5963e7b8cd0632774863f487de83c9012103786af4b32017ec640dba2d2a7e1fd5aa4a231a658e4cbc114d51c031576e19bcffffffff0de4a70e71cf2791c3ee8d02e899c84b919258756e37e243218481fb75d925a30e00000017160014cd80e6f59b912a121ff298b7b240a3982b2bebabffffffffaea3a701de1aeb8cb8e0442cfdf9bfce562b0ba2d8d5758793aa8ad11c40e9fd0100000017160014cd80e6f59b912a121ff298b7b240a3982b2bebabffffffff0280598c1c000000001976a91413d0f54fda72a67535a4090da478e43f5b8dcaa488ac4cc2f48d080000001976a914cebb2851a9c7cfe2582c12ecaf7f3ff4383d1dc088ac0002473044022053af98cbbf3ec26b004197a5e063d8bb7116abf6ea603a37bec2111705f868510220737089669593bd85f970960f5d14a7d2d789d1e3ea3c06f35027279804c4267e0121024e08a3453cfb64d14e13def3a9e70ba00e5fb92baabcc5d8e98edc40437ec4430247304402201385f41a0e01a85f3303f9cc2a1f435923c93b6ff86afd2ffecb647f05b1b9ad022053f9b520ec1b67f02b373452c3f625412d45e98fa60dba9ab89b7b6369367d970121024e08a3453cfb64d14e13def3a9e70ba00e5fb92baabcc5d8e98edc40437ec44300000000"
}
